{"abi":[{"type":"function","name":"getModTen","inputs":[{"name":"number","type":"uint256","internalType":"uint256"}],"outputs":[{"name":"","type":"uint256","internalType":"uint256"}],"stateMutability":"pure"},{"type":"function","name":"getModTwo","inputs":[{"name":"number","type":"uint256","internalType":"uint256"}],"outputs":[{"name":"","type":"uint256","internalType":"uint256"}],"stateMutability":"pure"}],"bytecode":{"object":"0x608060405234801561001057600080fd5b506101ef806100206000396000f3fe608060405234801561001057600080fd5b50600436106100365760003560e01c806357b4ae4d1461003b5780635f320e9c1461006b575b600080fd5b61005560048036038101906100509190610102565b61009b565b604051610062919061013e565b60405180910390f35b61008560048036038101906100809190610102565b6100b1565b604051610092919061013e565b60405180910390f35b6000600a826100aa9190610188565b9050919050565b60006002826100c09190610188565b9050919050565b600080fd5b6000819050919050565b6100df816100cc565b81146100ea57600080fd5b50565b6000813590506100fc816100d6565b92915050565b600060208284031215610118576101176100c7565b5b6000610126848285016100ed565b91505092915050565b610138816100cc565b82525050565b6000602082019050610153600083018461012f565b92915050565b7f4e487b7100000000000000000000000000000000000000000000000000000000600052601260045260246000fd5b6000610193826100cc565b915061019e836100cc565b9250826101ae576101ad610159565b5b82820690509291505056fea264697066735822122047933caaa6284bc4278f257780151f3a4909e013a6fd8cccd6811f07a6966ed464736f6c63430008130033","linkReferences":{}},"methodIdentifiers":{"getModTen(uint256)":"57b4ae4d","getModTwo(uint256)":"5f320e9c"},"id":37}