{"abi":[{"type":"function","name":"revertWithError","inputs":[],"outputs":[],"stateMutability":"pure"},{"type":"function","name":"revertWithRequire","inputs":[],"outputs":[],"stateMutability":"pure"},{"type":"error","name":"ExampleRevert__Error","inputs":[]}],"bytecode":{"object":"0x608060405234801561001057600080fd5b50610180806100206000396000f3fe608060405234801561001057600080fd5b50600436106100365760003560e01c806357eca1a51461003b57806388eea4ed14610045575b600080fd5b61004361004f565b005b61004d61008a565b005b600015610088576040517fd493e07d00000000000000000000000000000000000000000000000000000000815260040160405180910390fd5b565b60016100cb576040517f08c379a00000000000000000000000000000000000000000000000000000000081526004016100c29061012a565b60405180910390fd5b565b600082825260208201905092915050565b7f4578616d706c655265766572745f5f4572726f72000000000000000000000000600082015250565b60006101146014836100cd565b915061011f826100de565b602082019050919050565b6000602082019050818103600083015261014381610107565b905091905056fea2646970667358221220d7588a6ac73d20572ac1f47c2df47eeaaa24849c222f1d21125f54a14b135f2e64736f6c63430008130033","linkReferences":{}},"methodIdentifiers":{"revertWithError()":"57eca1a5","revertWithRequire()":"88eea4ed"},"id":38}